:020000040000FA
:10000000E3EF00F0F76A140FF66E000EF722090016
:10001000F5501200280C0106F76A280FF66E000E44
:10002000F7220900F55012000C2042757A7A6572A9
:10003000204F6E00F76A440FF66E000EF72209009B
:10004000F55012000C2042757A7A6572204F666670
:100050000000EA6A080EE96EEF500DE0060E016E30
:10006000006A002EFED7012EFBD77B0E006E002EFD
:10007000FED7EF2EF3D7000C0F38F00B006E0F0EEB
:1000800083140010836E00008380030E006E002E28
:10009000FED78390000CF00E956E83840000838061
:1000A000000083380F0B0F6E83900000838000D018
:1000B00000D0000083380F0B0E6E8390000E956EFB
:1000C0000F38006EF00E001600500E10016E6BEF30
:1000D00000F08392E0D701C00EF001BEFBD70CA068
:1000E00083920CB0838200008394000083900D38CB
:1000F0000E6E0F0E0E160EC00FF0BEDF0D500F0B62
:100100000E6E0F6EB9DF000C000E956E8392839415
:1001100083900F0E086E9DDF010E066E06500308D9
:1001200008E3030E0F6EA8DF050E086E92DF062AA5
:10013000F5D7020E0F6EA0DF066A065003080EE325
:10014000036A0650F2CF07F0F29E5CDF07BEF28E24
:10015000086E0C6A0D6EBDDF062AEFD7F0EF00F0D7
:10016000092C01D003D0400E0A6E01D00A6A010E9C
:10017000085C0A260A5080090B6E0C6A0D6EA9DF16
:10018000E2EF00F007500C0A05E0060A0BE0020A55
:100190000EE012D00C6A010E0D6E9BDF020E086E8F
:1001A00058DF10D0010E086E020E096ED9D70C6A06
:1001B000100E0D6E8EDF06D0010E0C6E07C00DF016
:1001C00088DF00D0000CF86AD09EEA6AE96AC15064
:1001D000C00B0F09C16E070EB46EFF0E946E94D75C
:1001E000640E086E36DF928080A00DD092928982D4
:1001F000066A065011DF062A006E076EC3DF0B0E7B
:10020000065CF7E10CD0066A065014DF062A006E81
:10021000076EB8DF0C0E065CF7E192928992E0D788
:020220000300D9
:020000040030CA
:0E000000000C1E1E008381000FC00FE00F4099
:00000001FF
;PIC18F4550
;CRC=5BCB  CREATED="26-Jul-14 22:39"
